{
  "_format": "hh-sol-artifact-1",
  "contractName": "CarRental",
  "sourceName": "contracts/CarRental.sol",
  "abi": [
    {
      "inputs": [
        {
          "internalType": "uint256",
          "name": "_price",
          "type": "uint256"
        }
      ],
      "stateMutability": "nonpayable",
      "type": "constructor"
    },
    {
      "anonymous": false,
      "inputs": [
        {
          "indexed": false,
          "internalType": "address",
          "name": "_from",
          "type": "address"
        },
        {
          "indexed": false,
          "internalType": "uint256",
          "name": "amount",
          "type": "uint256"
        }
      ],
      "name": "Deposit",
      "type": "event"
    },
    {
      "inputs": [],
      "name": "addRenter",
      "outputs": [],
      "stateMutability": "nonpayable",
      "type": "function"
    },
    {
      "inputs": [],
      "name": "balanceOfRenter",
      "outputs": [
        {
          "internalType": "uint256",
          "name": "",
          "type": "uint256"
        }
      ],
      "stateMutability": "view",
      "type": "function"
    },
    {
      "inputs": [
        {
          "internalType": "address",
          "name": "walletAddress",
          "type": "address"
        }
      ],
      "name": "canRentCar",
      "outputs": [
        {
          "internalType": "bool",
          "name": "",
          "type": "bool"
        }
      ],
      "stateMutability": "view",
      "type": "function"
    },
    {
      "inputs": [
        {
          "internalType": "address",
          "name": "newOwner",
          "type": "address"
        }
      ],
      "name": "changeOwner",
      "outputs": [],
      "stateMutability": "nonpayable",
      "type": "function"
    },
    {
      "inputs": [
        {
          "internalType": "uint256",
          "name": "newPrice",
          "type": "uint256"
        }
      ],
      "name": "changePrice",
      "outputs": [],
      "stateMutability": "nonpayable",
      "type": "function"
    },
    {
      "inputs": [],
      "name": "checkInCar",
      "outputs": [],
      "stateMutability": "nonpayable",
      "type": "function"
    },
    {
      "inputs": [],
      "name": "checkOutCar",
      "outputs": [],
      "stateMutability": "nonpayable",
      "type": "function"
    },
    {
      "inputs": [],
      "name": "counter",
      "outputs": [
        {
          "internalType": "uint256",
          "name": "",
          "type": "uint256"
        }
      ],
      "stateMutability": "view",
      "type": "function"
    },
    {
      "inputs": [
        {
          "internalType": "address",
          "name": "walletAddress",
          "type": "address"
        }
      ],
      "name": "getDue",
      "outputs": [
        {
          "internalType": "uint256",
          "name": "",
          "type": "uint256"
        }
      ],
      "stateMutability": "view",
      "type": "function"
    },
    {
      "inputs": [],
      "name": "getRenter",
      "outputs": [
        {
          "internalType": "uint256",
          "name": "",
          "type": "uint256"
        },
        {
          "internalType": "bool",
          "name": "",
          "type": "bool"
        },
        {
          "internalType": "bool",
          "name": "",
          "type": "bool"
        }
      ],
      "stateMutability": "view",
      "type": "function"
    },
    {
      "inputs": [],
      "name": "getRenterId",
      "outputs": [
        {
          "internalType": "uint256",
          "name": "",
          "type": "uint256"
        }
      ],
      "stateMutability": "view",
      "type": "function"
    },
    {
      "inputs": [
        {
          "internalType": "address",
          "name": "walletAddress",
          "type": "address"
        }
      ],
      "name": "getTimer",
      "outputs": [
        {
          "internalType": "bool",
          "name": "",
          "type": "bool"
        }
      ],
      "stateMutability": "view",
      "type": "function"
    },
    {
      "inputs": [
        {
          "internalType": "address",
          "name": "walletAddress",
          "type": "address"
        }
      ],
      "name": "getTotalDuration",
      "outputs": [
        {
          "internalType": "uint256",
          "name": "",
          "type": "uint256"
        }
      ],
      "stateMutability": "view",
      "type": "function"
    },
    {
      "inputs": [],
      "name": "makePayment",
      "outputs": [],
      "stateMutability": "payable",
      "type": "function"
    },
    {
      "inputs": [],
      "name": "owner",
      "outputs": [
        {
          "internalType": "address",
          "name": "",
          "type": "address"
        }
      ],
      "stateMutability": "view",
      "type": "function"
    },
    {
      "inputs": [],
      "name": "price",
      "outputs": [
        {
          "internalType": "uint256",
          "name": "",
          "type": "uint256"
        }
      ],
      "stateMutability": "view",
      "type": "function"
    },
    {
      "inputs": [
        {
          "internalType": "address",
          "name": "walletAddress",
          "type": "address"
        }
      ],
      "name": "renterExists",
      "outputs": [
        {
          "internalType": "bool",
          "name": "",
          "type": "bool"
        }
      ],
      "stateMutability": "view",
      "type": "function"
    },
    {
      "inputs": [
        {
          "internalType": "address",
          "name": "",
          "type": "address"
        }
      ],
      "name": "renters",
      "outputs": [
        {
          "internalType": "address payable",
          "name": "walletAddress",
          "type": "address"
        },
        {
          "internalType": "uint256",
          "name": "id",
          "type": "uint256"
        },
        {
          "internalType": "bool",
          "name": "canRent",
          "type": "bool"
        },
        {
          "internalType": "bool",
          "name": "active",
          "type": "bool"
        },
        {
          "internalType": "bool",
          "name": "timer",
          "type": "bool"
        },
        {
          "internalType": "uint256",
          "name": "due",
          "type": "uint256"
        },
        {
          "internalType": "uint256",
          "name": "start",
          "type": "uint256"
        },
        {
          "internalType": "uint256",
          "name": "end",
          "type": "uint256"
        }
      ],
      "stateMutability": "view",
      "type": "function"
    }
  ],
  "bytecode": "0x60806040523480156200001157600080fd5b5060405162002228380380620022288339818101604052810190620000379190620000c5565b336000806101000a81548173ffffffffffffffffffffffffffffffffffffffff021916908373ffffffffffffffffffffffffffffffffffffffff1602179055508060018190555050620000f7565b600080fd5b6000819050919050565b6200009f816200008a565b8114620000ab57600080fd5b50565b600081519050620000bf8162000094565b92915050565b600060208284031215620000de57620000dd62000085565b5b6000620000ee84828501620000ae565b91505092915050565b61212180620001076000396000f3fe6080604052600436106101095760003560e01c8063a035b1fe11610095578063c6d2a84611610064578063c6d2a84614610362578063ce5273c71461039f578063d8d79700146103b6578063d9a3f525146103c0578063f9d8241c146103eb57610109565b8063a035b1fe146102a8578063a2b40d19146102d3578063a6f9dae1146102fc578063af6143d31461032557610109565b806344ce5a4d116100dc57806344ce5a4d146101b657806361bc221a146101e1578063644a13701461020c5780637f6ae770146102505780638da5cb5b1461027d57610109565b80631531f0161461010e5780631c01f4191461014b578063245455661461016257806341ba6e8914610179575b600080fd5b34801561011a57600080fd5b50610135600480360381019061013091906116eb565b610428565b6040516101429190611733565b60405180910390f35b34801561015757600080fd5b50610160610481565b005b34801561016e57600080fd5b5061017761069a565b005b34801561018557600080fd5b506101a0600480360381019061019b91906116eb565b6108c8565b6040516101ad9190611767565b60405180910390f35b3480156101c257600080fd5b506101cb610976565b6040516101d89190611767565b60405180910390f35b3480156101ed57600080fd5b506101f66109c0565b6040516102039190611767565b60405180910390f35b34801561021857600080fd5b50610233600480360381019061022e91906116eb565b6109c6565b6040516102479897969594939291906117a3565b60405180910390f35b34801561025c57600080fd5b50610265610a55565b60405161027493929190611821565b60405180910390f35b34801561028957600080fd5b50610292610b59565b60405161029f9190611867565b60405180910390f35b3480156102b457600080fd5b506102bd610b7d565b6040516102ca9190611767565b60405180910390f35b3480156102df57600080fd5b506102fa60048036038101906102f591906118ae565b610b83565b005b34801561030857600080fd5b50610323600480360381019061031e91906116eb565b610c5e565b005b34801561033157600080fd5b5061034c600480360381019061034791906116eb565b610e0c565b6040516103599190611733565b60405180910390f35b34801561036e57600080fd5b50610389600480360381019061038491906116eb565b610e65565b6040516103969190611767565b60405180910390f35b3480156103ab57600080fd5b506103b4610eb1565b005b6103be611175565b005b3480156103cc57600080fd5b506103d5611532565b6040516103e29190611767565b60405180910390f35b3480156103f757600080fd5b50610412600480360381019061040d91906116eb565b611551565b60405161041f9190611733565b60405180910390f35b6000600360008373ffffffffffffffffffffffffffffffffffffffff1673ffffffffffffffffffffffffffffffffffffffff16815260200190815260200160002060020160029054906101000a900460ff169050919050565b60008054906101000a900473ffffffffffffffffffffffffffffffffffffffff1673ffffffffffffffffffffffffffffffffffffffff163373ffffffffffffffffffffffffffffffffffffffff160361050f576040517f08c379a000000000000000000000000000000000000000000000000000000000815260040161050690611938565b60405180910390fd5b6001600260008282546105229190611987565b925050819055506040518061010001604052803373ffffffffffffffffffffffffffffffffffffffff168152602001600254815260200160011515815260200160001515815260200160001515815260200160008152602001600081526020016000815250600360003373ffffffffffffffffffffffffffffffffffffffff1673ffffffffffffffffffffffffffffffffffffffff16815260200190815260200160002060008201518160000160006101000a81548173ffffffffffffffffffffffffffffffffffffffff021916908373ffffffffffffffffffffffffffffffffffffffff1602179055506020820151816001015560408201518160020160006101000a81548160ff02191690831515021790555060608201518160020160016101000a81548160ff02191690831515021790555060808201518160020160026101000a81548160ff02191690831515021790555060a0820151816003015560c0820151816004015560e08201518160050155905050565b60011515600360003373ffffffffffffffffffffffffffffffffffffffff1673ffffffffffffffffffffffffffffffffffffffff16815260200190815260200160002060020160019054906101000a900460ff16151514610730576040517f08c379a000000000000000000000000000000000000000000000000000000000815260040161072790611a07565b60405180910390fd5b603c600360003373ffffffffffffffffffffffffffffffffffffffff1673ffffffffffffffffffffffffffffffffffffffff16815260200190815260200160002060040154426107809190611a27565b116107c0576040517f08c379a00000000000000000000000000000000000000000000000000000000081526004016107b790611acd565b60405180910390fd5b6000600360003373ffffffffffffffffffffffffffffffffffffffff1673ffffffffffffffffffffffffffffffffffffffff16815260200190815260200160002060020160016101000a81548160ff02191690831515021790555042600360003373ffffffffffffffffffffffffffffffffffffffff1673ffffffffffffffffffffffffffffffffffffffff168152602001908152602001600020600501819055506000600360003373ffffffffffffffffffffffffffffffffffffffff1673ffffffffffffffffffffffffffffffffffffffff16815260200190815260200160002060020160026101000a81548160ff0219169083151502179055506108c6336115fb565b565b600080610959600360008573ffffffffffffffffffffffffffffffffffffffff1673ffffffffffffffffffffffffffffffffffffffff16815260200190815260200160002060040154600360008673ffffffffffffffffffffffffffffffffffffffff1673ffffffffffffffffffffffffffffffffffffffff16815260200190815260200160002060050154611672565b90506000603c8261096a9190611b1c565b90508092505050919050565b6000600360003373ffffffffffffffffffffffffffffffffffffffff1673ffffffffffffffffffffffffffffffffffffffff16815260200190815260200160002060010154905090565b60025481565b60036020528060005260406000206000915090508060000160009054906101000a900473ffffffffffffffffffffffffffffffffffffffff16908060010154908060020160009054906101000a900460ff16908060020160019054906101000a900460ff16908060020160029054906101000a900460ff16908060030154908060040154908060050154905088565b600080600080600360003373ffffffffffffffffffffffffffffffffffffffff1673ffffffffffffffffffffffffffffffffffffffff1681526020019081526020016000206001015490506000600360003373ffffffffffffffffffffffffffffffffffffffff1673ffffffffffffffffffffffffffffffffffffffff16815260200190815260200160002060020160009054906101000a900460ff1690506000600360003373ffffffffffffffffffffffffffffffffffffffff1673ffffffffffffffffffffffffffffffffffffffff16815260200190815260200160002060020160019054906101000a900460ff169050828282955095509550505050909192565b60008054906101000a900473ffffffffffffffffffffffffffffffffffffffff1681565b60015481565b60008054906101000a900473ffffffffffffffffffffffffffffffffffffffff1673ffffffffffffffffffffffffffffffffffffffff163373ffffffffffffffffffffffffffffffffffffffff1614610c11576040517f08c379a0000000000000000000000000000000000000000000000000000000008152600401610c0890611b99565b60405180910390fd5b60008111610c54576040517f08c379a0000000000000000000000000000000000000000000000000000000008152600401610c4b90611c05565b60405180910390fd5b8060018190555050565b60008054906101000a900473ffffffffffffffffffffffffffffffffffffffff1673ffffffffffffffffffffffffffffffffffffffff163373ffffffffffffffffffffffffffffffffffffffff1614610cec576040517f08c379a0000000000000000000000000000000000000000000000000000000008152600401610ce390611b99565b60405180910390fd5b60008054906101000a900473ffffffffffffffffffffffffffffffffffffffff1673ffffffffffffffffffffffffffffffffffffffff168173ffffffffffffffffffffffffffffffffffffffff1603610d7a576040517f08c379a0000000000000000000000000000000000000000000000000000000008152600401610d7190611c97565b60405180910390fd5b60001515610d8782611551565b151514610dc9576040517f08c379a0000000000000000000000000000000000000000000000000000000008152600401610dc090611d03565b60405180910390fd5b806000806101000a81548173ffffffffffffffffffffffffffffffffffffffff021916908373ffffffffffffffffffffffffffffffffffffffff16021790555050565b6000600360008373ffffffffffffffffffffffffffffffffffffffff1673ffffffffffffffffffffffffffffffffffffffff16815260200190815260200160002060020160009054906101000a900460ff169050919050565b6000600360008373ffffffffffffffffffffffffffffffffffffffff1673ffffffffffffffffffffffffffffffffffffffff168152602001908152602001600020600301549050919050565b60011515610ebe33611551565b151514610f00576040517f08c379a0000000000000000000000000000000000000000000000000000000008152600401610ef790611d6f565b60405180910390fd5b6000600360003373ffffffffffffffffffffffffffffffffffffffff1673ffffffffffffffffffffffffffffffffffffffff1681526020019081526020016000206003015414610f85576040517f08c379a0000000000000000000000000000000000000000000000000000000008152600401610f7c90611ddb565b60405180910390fd5b60011515600360003373ffffffffffffffffffffffffffffffffffffffff1673ffffffffffffffffffffffffffffffffffffffff16815260200190815260200160002060020160009054906101000a900460ff1615151461101b576040517f08c379a000000000000000000000000000000000000000000000000000000000815260040161101290611e47565b60405180910390fd5b6001600360003373ffffffffffffffffffffffffffffffffffffffff1673ffffffffffffffffffffffffffffffffffffffff16815260200190815260200160002060020160016101000a81548160ff02191690831515021790555042600360003373ffffffffffffffffffffffffffffffffffffffff1673ffffffffffffffffffffffffffffffffffffffff168152602001908152602001600020600401819055506000600360003373ffffffffffffffffffffffffffffffffffffffff1673ffffffffffffffffffffffffffffffffffffffff16815260200190815260200160002060020160006101000a81548160ff0219169083151502179055506001600360003373ffffffffffffffffffffffffffffffffffffffff1673ffffffffffffffffffffffffffffffffffffffff16815260200190815260200160002060020160026101000a81548160ff021916908315150217905550565b60008054906101000a900473ffffffffffffffffffffffffffffffffffffffff1673ffffffffffffffffffffffffffffffffffffffff163373ffffffffffffffffffffffffffffffffffffffff1603611203576040517f08c379a00000000000000000000000000000000000000000000000000000000081526004016111fa90611eb3565b60405180910390fd5b60003373ffffffffffffffffffffffffffffffffffffffff16319050600360003373ffffffffffffffffffffffffffffffffffffffff1673ffffffffffffffffffffffffffffffffffffffff168152602001908152602001600020600301548110156112a4576040517f08c379a000000000000000000000000000000000000000000000000000000000815260040161129b90611f6b565b60405180910390fd5b6000600360003373ffffffffffffffffffffffffffffffffffffffff1673ffffffffffffffffffffffffffffffffffffffff16815260200190815260200160002060030154905080341461132d576040517f08c379a000000000000000000000000000000000000000000000000000000000815260040161132490611fd7565b60405180910390fd5b6001600360003373ffffffffffffffffffffffffffffffffffffffff1673ffffffffffffffffffffffffffffffffffffffff16815260200190815260200160002060020160006101000a81548160ff0219169083151502179055506000600360003373ffffffffffffffffffffffffffffffffffffffff1673ffffffffffffffffffffffffffffffffffffffff168152602001908152602001600020600301819055506000600360003373ffffffffffffffffffffffffffffffffffffffff1673ffffffffffffffffffffffffffffffffffffffff168152602001908152602001600020600401819055506000600360003373ffffffffffffffffffffffffffffffffffffffff1673ffffffffffffffffffffffffffffffffffffffff1681526020019081526020016000206005018190555060008060009054906101000a900473ffffffffffffffffffffffffffffffffffffffff1673ffffffffffffffffffffffffffffffffffffffff16346040516114a790612028565b60006040518083038185875af1925050503d80600081146114e4576040519150601f19603f3d011682016040523d82523d6000602084013e6114e9565b606091505b505090508061152d576040517f08c379a000000000000000000000000000000000000000000000000000000000815260040161152490612089565b60405180910390fd5b505050565b60003373ffffffffffffffffffffffffffffffffffffffff1631905090565b60008073ffffffffffffffffffffffffffffffffffffffff16600360008473ffffffffffffffffffffffffffffffffffffffff1673ffffffffffffffffffffffffffffffffffffffff16815260200190815260200160002060000160009054906101000a900473ffffffffffffffffffffffffffffffffffffffff1673ffffffffffffffffffffffffffffffffffffffff16146115f157600190506115f6565b600090505b919050565b6000611606826108c8565b905060006001826116179190611b1c565b90506001548161162791906120a9565b600360008573ffffffffffffffffffffffffffffffffffffffff1673ffffffffffffffffffffffffffffffffffffffff16815260200190815260200160002060030181905550505050565b600082826116809190611a27565b905092915050565b600080fd5b600073ffffffffffffffffffffffffffffffffffffffff82169050919050565b60006116b88261168d565b9050919050565b6116c8816116ad565b81146116d357600080fd5b50565b6000813590506116e5816116bf565b92915050565b60006020828403121561170157611700611688565b5b600061170f848285016116d6565b91505092915050565b60008115159050919050565b61172d81611718565b82525050565b60006020820190506117486000830184611724565b92915050565b6000819050919050565b6117618161174e565b82525050565b600060208201905061177c6000830184611758565b92915050565b600061178d8261168d565b9050919050565b61179d81611782565b82525050565b6000610100820190506117b9600083018b611794565b6117c6602083018a611758565b6117d36040830189611724565b6117e06060830188611724565b6117ed6080830187611724565b6117fa60a0830186611758565b61180760c0830185611758565b61181460e0830184611758565b9998505050505050505050565b60006060820190506118366000830186611758565b6118436020830185611724565b6118506040830184611724565b949350505050565b611861816116ad565b82525050565b600060208201905061187c6000830184611858565b92915050565b61188b8161174e565b811461189657600080fd5b50565b6000813590506118a881611882565b92915050565b6000602082840312156118c4576118c3611688565b5b60006118d284828501611899565b91505092915050565b600082825260208201905092915050565b7f546865206f776e65722063616e6e6f742072656e742061206361720000000000600082015250565b6000611922601b836118db565b915061192d826118ec565b602082019050919050565b6000602082019050818103600083015261195181611915565b9050919050565b7f4e487b7100000000000000000000000000000000000000000000000000000000600052601160045260246000fd5b60006119928261174e565b915061199d8361174e565b92508282019050808211156119b5576119b4611958565b5b92915050565b7f506c6561736520636865636b206f757420612063617220666972737400000000600082015250565b60006119f1601c836118db565b91506119fc826119bb565b602082019050919050565b60006020820190508181036000830152611a20816119e4565b9050919050565b6000611a328261174e565b9150611a3d8361174e565b9250828203905081811115611a5557611a54611958565b5b92915050565b7f596f75206d7573742072656e7420612063617220666f722061206d696e696d7560008201527f6d206f662031206d696e75746500000000000000000000000000000000000000602082015250565b6000611ab7602d836118db565b9150611ac282611a5b565b604082019050919050565b60006020820190508181036000830152611ae681611aaa565b9050919050565b7f4e487b7100000000000000000000000000000000000000000000000000000000600052601260045260246000fd5b6000611b278261174e565b9150611b328361174e565b925082611b4257611b41611aed565b5b828204905092915050565b7f4f6e6c79206f776e657200000000000000000000000000000000000000000000600082015250565b6000611b83600a836118db565b9150611b8e82611b4d565b602082019050919050565b60006020820190508181036000830152611bb281611b76565b9050919050565b7f5072696365206d7573742062652067726561746572207468616e207a65726f00600082015250565b6000611bef601f836118db565b9150611bfa82611bb9565b602082019050919050565b60006020820190508181036000830152611c1e81611be2565b9050919050565b7f546865206e6577206f776e6572206d75737420626520646966666572656e742060008201527f746f20746865206f7269676e616c206f776e6572000000000000000000000000602082015250565b6000611c816034836118db565b9150611c8c82611c25565b604082019050919050565b60006020820190508181036000830152611cb081611c74565b9050919050565b7f52656e7465722063616e6e6f74206265636f6d6520746865206f776e65720000600082015250565b6000611ced601e836118db565b9150611cf882611cb7565b602082019050919050565b60006020820190508181036000830152611d1c81611ce0565b9050919050565b7f4e6f7420612072656e7465720000000000000000000000000000000000000000600082015250565b6000611d59600c836118db565b9150611d6482611d23565b602082019050919050565b60006020820190508181036000830152611d8881611d4c565b9050919050565b7f596f75206861766520612070656e64696e672062616c616e6365000000000000600082015250565b6000611dc5601a836118db565b9150611dd082611d8f565b602082019050919050565b60006020820190508181036000830152611df481611db8565b9050919050565b7f596f752063616e6e6f742072656e7420617420746869732074696d6500000000600082015250565b6000611e31601c836118db565b9150611e3c82611dfb565b602082019050919050565b60006020820190508181036000830152611e6081611e24565b9050919050565b7f4f776e65722063616e6e6f74206d616b652061207061796d656e740000000000600082015250565b6000611e9d601b836118db565b9150611ea882611e67565b602082019050919050565b60006020820190508181036000830152611ecc81611e90565b9050919050565b7f596f7520646f206e6f74206861766520656e6f7567682066756e647320746f2060008201527f636f766572207061796d656e742e20506c65617365206d616b6520612064657060208201527f6f73697400000000000000000000000000000000000000000000000000000000604082015250565b6000611f556044836118db565b9150611f6082611ed3565b606082019050919050565b60006020820190508181036000830152611f8481611f48565b9050919050565b7f506c65617365206f6e6c792073656e642074686520616d6f756e742064756500600082015250565b6000611fc1601f836118db565b9150611fcc82611f8b565b602082019050919050565b60006020820190508181036000830152611ff081611fb4565b9050919050565b600081905092915050565b50565b6000612012600083611ff7565b915061201d82612002565b600082019050919050565b600061203382612005565b9150819050919050565b7f4574686572206661696c656420746f2073656e64000000000000000000000000600082015250565b60006120736014836118db565b915061207e8261203d565b602082019050919050565b600060208201905081810360008301526120a281612066565b9050919050565b60006120b48261174e565b91506120bf8361174e565b92508282026120cd8161174e565b915082820484148315176120e4576120e3611958565b5b509291505056fea26469706673582212200a69055cdc0700482e4e2b611dfd4b25319cedd6d8019883fb3c89a5ed97c39d64736f6c63430008130033",
  "linkReferences": {},
  "deployedLinkReferences": {}
}